:02000000132AC1
:06000600000000000800EC
:10000C000F3083120313FC004730FD00FD0B0C284E
:0A001C00FC0B0C2800000000080097
:0E002600213083120313FD00FD0B1728080084
:1000340083160313E51B21288312881323288312B4
:1000440088178316651B2928831208132B2883120B
:1000540008178316E51A312883128812332883126D
:1000640088168316651A3928831208123B288312CE
:100074000816831658184128831209154328831239
:1000840009118914032089108316E5194C28831259
:1000940088134E28831288178316651954288312EF
:1000A40008135628831208178316E5185C28831250
:1000B40088125E28831288168316651864288312B2
:1000C4000812662883120816831658186C2883129F
:1000D40009156E28831209118914032089108316C7
:0C00E400581C76280620772813200800FE
:1000F00083120313F8010830FC00700DF80D74082A
:10010000F80203188528F8070310F00DFC0B7D2872
:020110000800E5
:1001120083160313E301033063020318972863086D
:100122006207840020308000E30A8C28630862079B
:1001320084008001E30363086207E4000A30F400EC
:100142006108F00078207808F0003030F00783165C
:1001520064088400700880000A30F4006108F0002E
:10016200782070088316E1007008003A031DBA284F
:08017200BC28E3039C280800EF
:0E017A008316031351088A0050088200080003
:100188008316031358106108E5001A2083165814C3
:0201980008005D
:10019A00831603135908831203178D0083168C13D1
:0A01AA000C1483120C08F00008008A
:1001B40083160313DA015A08590784000008031947
:1001C400EB285A08590784000008E100C420DA0A21
:0401D400DD2808001A
:1001D80083160313DD01DE015908DF000030DF1B41
:1001E800FF30E00080305906F0008030003A70029D
:1001F80003180B29DD0A0319DE0A5908003CDF0041
:10020800E001031CE0030130D91F0030E0075F085C
:10021800E1005A08E20089200430DB000030DC00ED
:100228005C08003C031D1A295B08003C03183529AB
:100238005B085A07F20001305B02F0000030031C33
:10024800013E5C02F10070085A0784000008F000C3
:1002580072088400700880000130DB02031CDC0394
:1002680014295A088400203080005D085E040319B0
:100278005329DB01DC015B085A0784000008203A97
:10028800031D4A29DB0A0319DC0A3F290130DB0276
:10029800031CDC035B085A0784002D30800008002B
:1002A8006629803083160313D9007929C030D90014
:1002B80079299430D9007929D430D9007929803026
:1002C800D9007929831603135908013A03195529C6
:1002D8005908023A03195A295908033A03195D299A
:1002E8005908043A0319602963295A03F000590888
:1002F800F0077008D9007008E5001A208316581016
:10030800DC015C085B0784000008031993295C087A
:100318005B0784000008E100C420DC0A8529581422
:020328000800CB
:10032A0083160313891009110812881208138813F7
:10033A0083128910091188130813881208120620DB
:10034A00062006208816081689140320891006201C
:10035A008914032089100620891403208910062095
:10036A000812891403208910062089140320891091
:10037A008812881789140320891006208813081602
:10038A008914032089100812891403208910062071
:10039A00891403208910081689140320891006205D
:1003AA000812891403208910881708178816081656
:0E03BA008914032089100620831658140800A9
:1003C800BD208A110A128000840AD00A0319D10AB2
:0803D800F003031DE4290800F5
:1003E000831603178C1CF6290000F0290313590803
:1003F000831203178D00831603135A088312031701
:100400008C0083168C130C150B08F0008B135530E1
:100410008D00AA308D008C14F01B102A8B13112A2A
:060420008B170C1108000F
:1004260090230730831603139F0007309C00850135
:1004360083128501063083168600870183128701A1
:10044600871495210130E5001A200C308316E5004B
:100456001A2001308316D9000130DA002030DB0083
:1004660054210230D9000130DA004230DB00542139
:100476001030FB003930FC000D30FD00FD0B412A29
:10048600FC0B412AFB0B412A000000000130E5006D
:100496001A2083120619982A87102730FC00F53097
:1004A600FD00FD0B542AFC0B542A87148230FC00F5
:1004B600DD30FD00FD0B5D2AFC0B5D2A000000000F
:1004C60087102730FC00F530FD00FD0B682AFC0B79
:1004D600682A871408308316D9004B30DA00F021D9
:1004E60001300313E5001A2001308316D9000130CC
:1004F600DA004230DB0054210230D9000130DA0044
:10050600BF30DB0054210B30FB002630FC005D3091
:10051600FD00FD0B8C2AFC0B8C2AFB0B8C2A0000A1
:1005260000000130E5001A20092B8618FA2A8710E8
:100536002730FC00F530FD00FD0B9F2AFC0B9F2A9F
:10054600871408308316D900CD2070080313EF00F6
:1005560070088316D900D230DA00EC200130E500AD
:100566001A2001308316D9000130DA004230DB0050
:1005760054210230D9000130DA005330DB00542117
:100586000B30FB002630FC005D30FD00FD0BC92A58
:10059600FC0BC92AFB0BC92A000000000130E5004C
:1005A6001A2001308316D9000130DA00D230DB0080
:1005B60054216430D900DA20C030E5001A206F08D3
:1005C6008316E100C420B130D900DA201A30FB00CE
:1005D6005E30FC006E30FD00FD0BEF2AFC0BEF2AAF
:1005E600FB0BEF2A00000130E5001A20092B013031
:1005F6008316D9000130DA00A030DB005421023026
:10060600D9000130DA003130DB0054214C2A0A2BA4
:10072000203084004F3083120313F0001030831602
:10073000D0000330D100E421A03084003030F0003C
:0E0740005F308316D0000330D100E4210800A2
:100620005434453453345434453420344434203421
:100630004C3445342F3447345234413456344134E9
:02064000003484
:100642004C34453420346F347534203449344E34BC
:10065200543432342E3447345234413456344134D3
:02066200003462
:10066400453420342034453420342034503420346C
:1006740020345234203420344F34203420344D3448
:02068400003440
:100686004C34203445342034493420345434203416
:10069600553420345234203441343A342E342E34F6
:0206A60000341E
:1006A80020343D34203444344534433449344D34C3
:0606B80041344C34003413
:1006BE005034523445345334533449344F344E3419
:1006CE00413452343A34203449344E345434313473
:0206DE000034E6
:1006E00020343D34203420344334483441345234AF
:0C06F00041344334543445345234003457
:1006FC00473420345234203441342034563420349E
:10070C0041342034443420344134203420342134D6
:02071C000034A7
:02400E004A2F37
:00000001FF
