:020000001429C1
:0E000600213083120313FD00FD0B07280800B4
:06001400000000000800DE
:10001A000F3083120313FC004730FD00FD0B132839
:0A002A00FC0B132800000000080082
:1000340083120313D31B2028881321288817531BEA
:100044002528081326280817D31A2A2888122B28AB
:100054008816531A2F280812302808164C183428EA
:1000640009153528091189140A208910D3193C2847
:1000740088133D2888175319412808134228081764
:10008400D318462888124728881653184B28081274
:100094004C2808164C1850280915512809118914A0
:1000A4000A2089104C1C58280D20592803200800C8
:0E00B400831203134B088A004A0882000800DA
:1000C200831203134C105208D3001A204C14080058
:1000D2007B28803083120313CE008E28C030CE00DE
:1000E2008E289430CE008E28D430CE008E288030D8
:1000F200CE008E28831203134E08013A03196A2890
:100102004E08023A03196F284E08033A031972285F
:100112004E08043A0319752878284F03F0004E0858
:10012200F0077008CE007008D3001A204C10D101DD
:1001320051085007840000080319A72851085007E6
:1001420084000008D2006120D10A99284C140800CA
:1001520083160313891009110812881208138813D1
:1001620083128910091188130813881208120D20AE
:100172000D200D208816081689140A2089100D20DA
:1001820089140A2089100D2089140A2089100D2053
:10019200081289140A2089100D2089140A20891056
:1001A2008812881789140A2089100D2088130816CE
:1001B20089140A208910081289140A2089100D2036
:1001C20089140A208910081689140A2089100D2022
:1001D200081289140A208910881708178816081629
:0C01E20089140A2089100D204C1408001C
:1001EE00063083120313FB001330FC00AD30FD000C
:1001FE00FD0BFF28FC0BFF28FB0BFF280000000067
:02020E000800E6
:100210005A208A110A128000840ACA0A0319CB0ADA
:08022000F003031D082908008A
:10022800AC210730831603139F00A9200130D300A7
:100238001A200C30D3001A200130CE000630CF002F
:100248004230D00069200230CE000630CF003A306C
:10025800D00069201530FB004B30FC00BE30FD009B
:10026800FD0B3429FC0B3429FB0B34290000013029
:10027800D3001A200130CE000130CF002930D00041
:1002880069200230CE000530CF002030D000692030
:100298001530FB004B30FC00BE30FD00FD0B522931
:1002A800FC0B5229FB0B52290000CD0104304D02F2
:1002B800031864291C30D3001A20F720CD0A5A29C4
:1002C800CD0108304D0203186F291830D3001A20C9
:1002D800F720CD0A6529CD0108304D0203187A2987
:1002E8001C30D3001A20F720CD0A702964297B29F5
:10035800203084002A3083120313F0008130CA0051
:080368000130CB000821080060
:1003020045346134733479345034493443343634A7
:020312000034B5
:100314006D3469346B3472346F3445346C34653401
:100324006B34743472346F346E3469346B346134C6
:02033400003493
:100336006534783461346D3470346C34653400342B
:100346004C34633464343434623469347434003481
:02400E004A2F37
:00000001FF
