:02000000082BCB
:0E000600213083120313FD00FD0B07280800B4
:100014000F3083120313FC004730FD00FD0B102842
:0A002400FC0B10280000000008008B
:06002E00000000000800C4
:1000340083120313D11B2028881321288817511BEE
:100044002528081326280817D11A2A2888122B28AD
:100054008816511A2F2808123028081648183428F0
:10006400091535280911891417208910D1193C283C
:1000740088133D2888175119412808134228081766
:10008400D118462888124728881651184B28081278
:100094004C280816481850280915512809118914A4
:1000A40017208910481C58280A20592803200800C2
:1000B400710DF80DF90D7408F8027508031C750F1D
:1000C400F902F00DF10D0F30FC00710DF80DF90D72
:1000D4007408701C7328F8027508031C750FF90264
:1000E4007828F80775080318750FF907F00DF10D56
:1000F400FC0B6728701884287408F807750803181F
:08010400750FF9070000080067
:10010C0083120313FB01FA01F9018030F800F10CA2
:10011C00F00C031C9A287408F90775080318750F5E
:10012C00FA070318FB0A0310F01FA2287408FA0739
:10013C0075080318750FFB07FB0CFA0CF90CF80C7F
:10014C00031C8D287B08F3007A08F2007908F10073
:06015C007808F000080025
:0E0162008312031346088A0045088200080035
:100170008312031348105008D1001A2048140800B5
:10018000831203132230FC00F801F901FA01FB018C
:10019000FC030319F6280310FB0CFA0CF90CF80CFD
:1001A000F30CF20CF10CF00C031CC828FC0303192F
:1001B000E8287408F80775080318750FF90776081A
:1001C0000318760FFA0777080318770FFB07CC2878
:1001D0007408F80775080318750FF90776080318EF
:0E01E000760FFA0777080318770FFB07080061
:1001EE000E3083120313FD00FD0BFB2800000800E8
:1001FE00831203137408003A031D0E297508003A82
:10020E00031D0E29FF30F0007F30F10067298312A5
:10021E000313FD01F901F80171087004031900348C
:10022E0071087506FA00FA1BFD09FB01F51F24295A
:10023E00F409F509F40A0319F50AF11F2B29F0093F
:10024E00F109F00A0319F10A71087504FA00FA1B94
:10025E0040295A207B185329FD1F0034F009F1095B
:10026E00F00A0319F10AF809F909F80A0319F90A4B
:10027E000034F51F4F29F11B4B297108F900700846
:10028E00F800F101F0013329F101F001F00A003418
:10029E00F109F009FB0A3029F80A0319F90A740862
:1002AE007802031D332975087902031D3329F901DC
:1002BE00F801F00A0319F10AF11F33290000FF3487
:0202CE00080026
:1002D000D03083120313CC000730CD00CE01CF0104
:1002E000D030F0000730F1000030F2000030F300B1
:1002F0004A08F4004B08F500F601F701C020700829
:10030000CC007108CD007208CE007308CF00003019
:100310007302031D952900307202031D95290230D6
:100320007102031D9529B230700203189829D7294C
:10033000B230F0000230F100F201F3017008CC029B
:100340007108031C710FCD027208031C720FCE02DC
:100350007308031C730FCF020530F00070080319F7
:10036000B829CF0CCE0CCD0CCC0CCF13FF3EAF294F
:100370004C08F0004D08F1004E08F2004F08F30061
:100380000130CC02031CCD02031CCE02031CCF02A1
:1003900070087104720473040319D7290000000067
:1003A000000000000000000000000000B829080064
:1003B000831603130711831212150C3097040800DB
:1003C000831203139F01C0309F0483161F179F17CA
:1003D00083124A08F000F00D7010F00D7010F00D4F
:1003E000701070089F041F14F7201F151F1DFA2995
:1003F0000000F6291F101E08F100F00183161E08E8
:08040000F0040030F1040800D3
:10040800831603131208013EF000F1010318F10AE4
:1004180083124A08F400F50186200630F2007008BD
:10042800F4007108F500720803191F2AF50CF40C82
:10043800F513FF3E182A0430F1007408F000710823
:1004480003192A2AF00D7010FF3E242A3030700557
:10045800F3007408F0007508F100F10CF00CF113CA
:10046800F10CF00CF113700895000F309705730824
:0404780097040800DD
:10047C0083120313F8010830FC00700DF80D74089A
:10048C00F80203184B2AF8070310F00DFC0B432A53
:02049C00080056
:10049E00612A803083120313CA00742AC030CA0046
:1004AE00742A9430CA00742AD430CA00742A803058
:1004BE00CA00742A831203134A08013A0319502AF8
:1004CE004A08023A0319552A4A08033A0319582AC8
:1004DE004A08043A03195B2A5E2A4B03F0004A08C5
:1004EE00F0077008CA007008D1001A204810CD011C
:1004FE004D084C078400000803198D2A4D084C073F
:10050E0084000008D000B820CD0A7F2A48140800C5
:0C051E00831203139501171297120800B6
:10052A00B1208A110A128000840AC50A0319C60A70
:08053A00F003031D952A0800DF
:10054200831203137008F100F0010830FC007108F7
:10055200F40C0318B02AFC0BA92AF1010034031091
:10056200B52AF40C0318F107F10CF00CFC0BB22ABB
:0205720008007F
:1005740083160313891009110812881208138813AB
:1005840083128910091188130813881208120A208B
:100594000A200A20881608168914172089100A20B0
:1005A4008914172089100A208914172089100A2019
:1005B40008128914172089100A2089141720891019
:1005C400881288178914172089100A20881308169E
:1005D40089141720891008128914172089100A20F9
:1005E40089141720891008168914172089100A20E5
:1005F40008128914172089108817081788160816F6
:0C0604008914172089100A2048140800EF
:10061000F4238E30831603139F0005140711BA22AA
:100620000130D1001A200C30D1001A200130CA004C
:100630000130CB002030CC004F22E830CA0003301C
:10064000CB0068210130CA000130CB003B30CC0028
:100650004F220230CA000130CB003330CC004F2291
:10066000121492147C30831692008F22D821CA0172
:10067000E02170088312C3007108C4007008F20002
:100680007108F300F30CF20CF313731BF317F30C64
:10069000F20CF313731BF3177208C9007208F00011
:1006A0006430F4003E220A30F4003E227808F00064
:1006B0000030F1007008303EAA000A30F40049080A
:1006C000F0003E220A30F4003E227808F0000030AC
:1006D000F1007008303EAB000A30F4004908F00029
:1006E0003E227808F0000030F1007008303EAC0087
:1006F0000130CA000730CB002A30CC004F226430D2
:10070000F0004908F400A122FF30F400F501FF20B9
:100710007008C7004908CA0004226830FC00E430B1
:10072000FD00FD0B912BFC0B912B00006430F400BD
:100730004708F0003E220A30F4003E227808F0001C
:100740000030F1007008303EAE000A30F400470877
:10075000F0003E220A30F4003E227808F00000301B
:10076000F1007008303EAF000A30F4004708F00096
:100770003E227808F0000030F1007008303EB000F2
:100780000230CA000730CB002E30CC004F22372B6E
:02079000C82B74
:1007E80020308400253083120313F000CE30C5007A
:0807F8000330C6009522080041
:10079C0049346E3469346334693461346E3464348E
:0407AC006F34003472
:0807B000203420342034003411
:0A07B80020342034203425340034AE
:1007C20050344F345734453452343A3420340034A0
:1007D20043344F3455344E3454343A342034003494
:0407E20000340034AB
:02400E004A2F37
:00000001FF
