:020000001628C0
:0E0006008312031321088A00200882000800DC
:1000140003208A110A128000840AA00A0319A10A83
:08002400F003031D0A28080087
:10002C000630831603139F0007309C008501831252
:10003C00850183168601831286018316870183123C
:10004C008701831688018312880183168901831224
:10005C008901071009108801860187120711871082
:10006C000130870601308906880986092030870609
:10007C0004308706023087060830FB009D30FC00F8
:10008C000530FD00FD0B4828FC0B4828FB0B4828CD
:08009C00000000003628512885
:02400E004A2F37
:00000001FF
