:020000000329D2
:0E000600213083120313FD00FD0B07280800B4
:100014000F3083120313FC004730FD00FD0B102842
:0A002400FC0B10280000000008008B
:06002E00000000000800C4
:1000340083120313CA1B20288813212888174A1BFC
:100044002528081326280817CA1A2A2888122B28B4
:1000540088164A1A2F2808123028081644183428FB
:10006400091535280911891417208910CA193C2843
:1000740088133D2888174A1941280813422808176D
:10008400CA1846288812472888164A184B28081286
:100094004C280816441850280915512809118914A8
:1000A40017208910441C58280A20592803200800C6
:0E00B4008312031343088A00420882000800EA
:1000C2008312031344104908CA001A20441408007A
:1000D2008316031389100911081288120813881352
:1000E20083128910091188130813881208120A2032
:1000F2000A200A20881608168914172089100A2057
:100102008914172089100A208914172089100A20BF
:1001120008128914172089100A20891417208910BF
:10012200881288178914172089100A208813081644
:1001320089141720891008128914172089100A209F
:1001420089141720891008168914172089100A208B
:10015200081289141720891088170817881608169C
:0C0162008914172089100A20441408009A
:10016E00C928803083120313C500DC28C030C500B7
:10017E00DC289430C500DC28D430C500DC28803063
:10018E00C500DC28831203134508013A0319B82869
:10019E004508023A0319BD284508033A0319C02839
:1001AE004508043A0319C328C6284603F00045083B
:1001BE00F0077008C5007008CA001A204410C80164
:1001CE0048084707840000080319F5284808470720
:1001DE0084000008C9006120C80AE72844140800FA
:1001EE005A208A110A128000840AC20A0319C30A0D
:0801FE00F003031DF7280800BF
:10020600543083120313A0004530A1005330A200DE
:100216005430A3004530A4002E30A5002E30A60091
:100226002E30A7005430A8004530A9005330AA004C
:100236005430AB004130AC004E30AD004430AE001F
:100246004F30AF00B0014530B1005330B2004330FB
:10025600B3005230B4004930B5005430B6004130D6
:10026600B7002E30B8002E30B9004E30BA004F30ED
:10027600BB002E30BC002E30BD004C30BE004330DB
:10028600BF004430C000C101073083169F0007300D
:100296009C00850183128501063083168600831231
:1002A600860183168701831287018714692001302E
:1002B600CA001A200C30CA001A200130C5000130CD
:1002C600C6002030C700B7200230C5000130C60086
:1002D6003130C700B72087102730FC00F530FD000D
:1002E600FD0B7329FC0B732987140230FB00863043
:1002F600FC009930FD00FD0B7E29FC0B7E29FB0BD3
:100306007E2987102730FC00F530FD00FD0B89297A
:10031600FC0B892987146630FB007630FC00C1305F
:10032600FD00FD0B9429FC0B9429FB0B94296E29E7
:020336009B2901
:02400E004A2F37
:00000001FF
