:02000000AB282B
:10000600710DF80DF90D7408F8027508031C750FCB
:10001600F902F00DF10D0F30FC00710DF80DF90D20
:100026007408701C1C28F8027508031C750FF90269
:100036002128F80775080318750FF907F00DF10D5B
:10004600FC0B102870182D287408F807750803187B
:08005600750FF9070000080016
:0E005E00831203133D088A003C08820008004C
:10006C002F208A110A128000840ABC0A0319BD0AC7
:08007C00F003031D3628080003
:10008400831203137408003A031D51287508003ABB
:10009400031D5128FF30F0007F30F100AA2883129D
:1000A4000313FD01F901F801710870040319003408
:1000B40071087506FA00FA1BFD09FB01F51F672894
:1000C400F409F509F40A0319F50AF11F6E28F00979
:1000D400F109F00A0319F10A71087504FA00FA1B10
:1000E400832803207B189628FD1F0034F009F109AA
:1000F400F00A0319F10AF809F909F80A0319F90AC7
:100104000034F51F9228F11B8E287108F90070083D
:10011400F800F101F0017628F101F001F00A003451
:10012400F109F009FB0A7328F80A0319F90A74089B
:100134007802031D762875087902031D7628F901D3
:10014400F801F00A0319F10AF11F76280000FF34C0
:020154000800A1
:1001560083120313A001A101A201A301A401A50119
:10016600A601A7013F30A800A9010630AA00AB01ED
:100176005B30AC00AD014F30AE00AF016630B00071
:10018600B1016D30B200B3017D30B400B501073066
:10019600B600B7017F30B800B9016F30BA00BB01B5
:1001A600063083169F0005118511051285128801F8
:1001B60087108312871480302106F0008030700289
:1001C600031DE728C83020020318082A0A30F40065
:1001D6000030F5002608F0002708F10042207808D4
:1001E600F0007908F10000307106031DFC2800308C
:1001F6007006031922290A30F4000030F50026089B
:10020600F0002708F10042207808F0007908F10094
:100216007008F2007108F300F20DF30D7210720807
:10022600283E840000088800851600307106031DEC
:100236001E2905307006031D212987142629280842
:100246008800851687100630FC003030FD00FD0B57
:100256002A29FC0B2A29000085126430F40000309C
:10026600F5002608F0002708F10042207808F00083
:100276007908F10000307106031D4329003070062D
:10028600031969296430F4000030F5002608F000EF
:100296002708F10042207808F0007908F1000A30BA
:1002A600F4000030F50042207008A2007108A30097
:1002B6007008F2007108F300F20DF30D7210720867
:1002C600283E84000008880005166C292808880046
:1002D60005160830FC00C930FD00FD0B7029FC0B2B
:1002E6007029000000000512E830F4000330F50024
:1002F6002608F0002708F10042207808F000790867
:10030600F10000307106031D8A29003070060319BA
:10031600B029E830F4000330F5002608F00027087D
:10032600F10042207808F0007908F1006430F4000A
:100336000030F50042207008A4007108A50070087E
:10034600F2007108F300F20DF30D72107208283EE8
:100356008400000888008515B329280888008515BB
:100366000630FC003030FD00FD0BB729FC0BB72929
:10037600000085111030F4002730F5002608F00043
:100386002708F10042207808F0007908F1000030D3
:100396007106031DD029003070060319F6291030A6
:1003A600F4002730F5002608F0002708F100422067
:1003B6007808F0007908F100E830F4000330F50021
:1003C60042207008A4007108A5007008F2007108A8
:1003D600F300F20DF30D72107208283E8400000837
:1003E60088000515F9292808880005150630FC003F
:1003F6003030FD00FD0BFD29FC0BFD290000051129
:100406003230A0070318A10ADE28A60A0319A70A94
:1004160080302706F0008030273A7002031D152A27
:1004260010302602031C192AA601A70180302106D6
:10043600F00080307002031D222AC8302002031CFF
:10044600262AA001A101051185110512DE282A2AF6
:02400E004A2F37
:00000001FF
