:020000001628C0
:0E0006008312031323088A00220882000800D8
:1000140003208A110A128000840AA20A0319A30A7F
:08002400F003031D0A28080087
:10002C0083120313A001A101063083169F00073031
:10003C009C00850186018701880189018312850155
:10004C00AA308600870155308800890100302102D2
:10005C00031D322856302002031848288609060949
:10006C0088000430FB008E30FC001230FD00FD0BCC
:10007C003D28FC0B3D28FB0B3D280000A00A031972
:0A008C00A10A2C28860188014A28E9
:02400E004A2F37
:00000001FF
