:02000000E929EC
:06000600000000000800EC
:10000C000F3083120313FC004730FD00FD0B0C284E
:0A001C00FC0B0C2800000000080097
:0E002600213083120313FD00FD0B1728080084
:1000340083160313141928281F301105F1007108C1
:10004400003A031D28280130F0002928F001080097
:1000540083120313C91B3028881331288817491BBE
:100064003528081336280817C91A3A2888123B2855
:100074008816491A3F280812402808163E184428B2
:10008400091545280911891403208910C9194C2818
:1000940088134D288817491951280813522808171E
:1000A400C918562888125728881649185B28081238
:1000B4005C2808163E18602809156128091189145E
:1000C400032089103E1C6828062069281320080094
:1000D400831203133E104508C9002A203E14080069
:1000E400831203138C11450893008316141D7B2877
:1000F400772883128C197F287B288316111B842868
:0C010400F001872811150230F0000800FF
:10011000831203138C118316911583128C19912865
:100120008D281308F1004508003A031D9A2883160C
:1001300091169C288316911283128C118316111626
:0E01400083128C19A428A0287108F000080072
:0E014E008312031340088A003F088200080055
:0E015C00831603139114911CB428B1280800D7
:10016A0083120313C501C6014608123C031DBF28AA
:10017A0045088E3C031CCB281A2070080319C62890
:10018A00CB288312C50A0319C60AB928831212306A
:10019A004602031DD2288F304502031CD7287B3024
:1001AA00F000DD2883161114111CDC28D928F0016F
:0201BA0008003B
:0801BC0083160313111508005E
:1001C40083160313141394130716871538308312F8
:0401D400940008008B
:1001D800FE28803083120313C1001129C030C100EA
:1001E80011299430C1001129D430C100112980305F
:1001F800C1001129831203134108013A0319ED289C
:100208004108023A0319F2284108033A0319F5286C
:100218004108043A0319F828FB284203F000410872
:10022800F0077008C1003E147008C9002A203E106B
:0A0238004308C9002A203E14080004
:100242001430831603139300E220B520A0308312EA
:100252000313C500722083124108C5007220831265
:0A0262004208C5007220DE200800EB
:10026C004829803083120313C1005B29C030C100C0
:10027C005B299430C1005B29D430C1005B298030EC
:10028C00C1005B29831203134108013A0319372972
:10029C004108023A03193C294108033A03193F2942
:1002AC004108043A0319422945294203F000410848
:1002BC00F0077008C1007008C9002A203E10C40164
:1002CC0044084307840000080319742944084307B1
:1002DC0084000008C5006A20C40A66293E14080080
:1002EC008316031389100911081288120813881336
:1002FC00831289100911881308138812081206201A
:10030C00062006208816081689140320891006205A
:10031C0089140320891006208914032089100620D3
:10032C0008128914032089100620891403208910CF
:10033C008812881789140320891006208813081640
:10034C0089140320891008128914032089100620AF
:10035C00891403208910081689140320891006209B
:10036C000812891403208910881708178816081694
:0C037C0089140320891006203E1408009C
:10038800B520A03083120313C500722083124108E0
:10039800C5007220AE20A1308312C50072208312DE
:1003A800C50188207008C200DE2083124208F000D0
:0203B80008003B
:1003BA00A7208A110A128000840ABF0A0319C00AF8
:0803CA00F003031DDD2908000A
:1003D200453083120313A0007330A1006330A200E2
:1003E2007230A3002E30A4002030A5006E30A6008B
:1003F2006130A7002030A8003230A9003430AA00B2
:100402004330AB003030AC003430AD00AE014C3084
:10041200AF006930B0006430B1006F30B2002030FC
:10042200B3006430B4006130B5002030B600323021
:10043200B7003430B8004330B9003030BA0034303D
:10044200BB00BC0183168601880189010F309F0021
:1004520076210130C9002A200C30C9002A2001303F
:10046200C1000130C2002030C3003621BD0110306E
:100472003D020318522A3D08C1003D08613EC200F8
:1004820021210230FB000430FC00BA30FD00FD0BDC
:10049200482AFC0B482AFB0B482A00008312BD0A9B
:1004A200382A0130C1000130C2002F30C30036218A
:1004B200BD0110303D020318772A3D08C100C42156
:1004C2007008C3000230C1003D0AC200EC200230B5
:1004D200FB000430FC00BA30FD00FD0B6E2AFC0B61
:1004E2006E2AFB0B6E2A0000BD0A5A2A772A782A46
:02400E004A2F37
:00000001FF
