:020000001628C0
:0E0006008312031321088A00200882000800DC
:1000140003208A110A128000840AA00A0319A10A83
:08002400F003031D0A28080087
:10002C000630831603139F0007309C008501831252
:10003C008501FF30831686008701831287018316A2
:10004C0088018312880183168901831289010710A4
:10005C00091007118714081088100811881108124C
:10006C0088120813881306183D2807143E28071019
:10007C008618422809144328091006194728071521
:10008C004828071186194C2887104D288714061A02
:10009C005128081452280810861A562888105728F8
:1000AC008814061A5B2808155C280811861A602823
:1000BC00881161288815061A652808166628081202
:1000CC00861A6A2888126B288816061A6F28081751
:1000DC0070280813861A742888137528881782309C
:1000EC00FC00DD30FD00FD0B7928FC0B79280000AD
:0600FC00000039288028F5
:02400E004A2F37
:00000001FF
