:02000000EB2BE8
:0E000600213083120313FD00FD0B07280800B4
:100014000F3083120313FC004730FD00FD0B102842
:0A002400FC0B10280000000008008B
:06002E00000000000800C4
:1000340083160313AC1B21288312881323288312ED
:10004400881783162C1B2928831208132B28831244
:1000540008178316AC1A31288312881233288312A6
:10006400881683162C1A3928831208123B28831207
:10007400081668183F280915402809118914172003
:1000840089108316AC194928831288134B288312CC
:10009400881783162C1951288312081353288312A6
:1000A40008178316AC185928831288125B28831208
:1000B400881683162C186128831208126328831269
:1000C4000816681867280915682809118914172063
:0E00D4008910681C6F280A207028032008007D
:1000E200831203132230FC00F801F901FA01FB012B
:1000F200FC030319A7280310FB0CFA0CF90CF80CEB
:10010200F30CF20CF10CF00C031C7928FC0303191C
:1001120099287408F80775080318750FF907760807
:100122000318760FFA0777080318770FFB077D2865
:100132007408F80775080318750FF907760803188D
:0E014200760FFA0777080318770FFB070800FF
:10015000BA28803083160313A600CD28C030A6002D
:10016000CD289430A600CD28D430A600CD288030EC
:10017000A600CD28831603132608013A0319A928DF
:100180002608023A0319AE282608033A0319B128B3
:100190002608043A0319B428B7282703F0002608D4
:1001A000F0077008A6008312681470088316AC006C
:1001B0001A20681083162808AC001A20681408005A
:1001C000D03083160313A8000730A900AA01AB01A1
:1001D000D030F0000730F1000030F2000030F300C2
:1001E0002608F4002708F500F601F70171207008D1
:1001F0008316A8007108A9007208AA007308AB0052
:1002000000307302031D0E2900307202031D0E29F7
:1002100002307102031D0E29B23070020318112939
:100220005029B230F0000230F100F201F301700801
:10023000A8027108031C710FA9027208031C720F37
:10024000AA027308031C730FAB020530F00070089C
:1002500003193129AB0CAA0CA90CA80CAB13FF3E57
:1002600028292808F0002908F1002A08F2002B08A4
:10027000F3000130A802031CA902031CAA02031CFC
:10028000AB02700871047204730403195029000052
:100290000000000000000000000000000000312904
:0202A000080054
:1002A2008316031314195F291F301105F100710819
:1002B200003A031D5F290130F0006029F0010800B7
:1002C20083120313681083162608AC001A206814E0
:0202D200080022
:1002D400831203138C118316911583128C197329BD
:1002E4006F291308F1006C08003A031D7C2983165A
:1002F40091167E298316911283128C11831611167E
:0E03040083128C19862982297108F0000800E6
:0E0312008312031364088A0063088200080047
:10032000A229803083120313EC00B529C030EC0001
:10033000B5299430EC00B529D430EC00B5298030D3
:10034000EC00B529831203136C08013A03199129B3
:100350006C08023A031996296C08033A0319992983
:100360006C08043A03199C299F296D03F0006C085E
:10037000F0077008EC0070088316AC001A206810B3
:10038000EF016F086E07840000080319D0296F0879
:100390006E07840000088316A6006121EF0AC129B8
:0403A00068140800D5
:0803A400831603131115080074
:1003AC0083120313EC01ED016D08123C031DE029CF
:1003BC006C088E3C031CEC29512170080319E729A9
:1003CC00EC298312EC0A0319ED0ADA298312123094
:1003DC006D02031DF3298F306C02031CF8297B304E
:1003EC00F000FE2983161114111CFD29FA29F001C5
:0203FC000800F7
:1003FE0083160313141394130716871538308312BC
:04040E00940008004E
:0E041200831603139114911C0F2A0C2A080064
:10042000831203136E088316A800A80CA813A80C47
:10043000A813A80CA813A80CA8133030A80783127F
:100440006C088316A60083126D088316A700A820E7
:100450000F306E058316A6003030A6076121080014
:1004600083120313D201D30183162108831253028E
:10047000031D3E2A83162008831252020318542AB1
:10048000871083162208A6002308A700E020831205
:10049000871483162408A6002508A700E0208312ED
:0A04A000D20A0319D30A342A080017
:1004AA00831203138C116C0893008316141D5E2AA1
:1004BA005A2A83128C19622A5E2A8316111B672A0A
:0C04CA00F0016A2A11150230F000080051
:1004D600832A203083120313E1009E2A3530E1007F
:1004E6009E2A2F30E1009E2A2830E1009E2A3D30C8
:1004F600E1009E2A5B30E1009E2A5430E1009E2AEC
:10050600831203136208013A03196C2A6208023A3D
:100516000319712A6208033A0319742A6208043A15
:100526000319772A6208053A03197A2A6208063AF5
:0805360003197D2A802A080048
:10053E00D621D03083120313EC0055228312EC0126
:10054E0055220922D1308312EC005522013083123C
:10055E00EC006A217008EB000130EC006A21700893
:10056E00EA000130EC006A217008E9000130EC006D
:10057E006A217008E2000130EC006A217008E70081
:10058E000130EC006A217008E600EC016A21700867
:06059E00E500D221080077
:1005A4001430831603139300FF21D621D030831215
:1005B4000313EC0055228312EC0155228312EC0143
:1005C400552230308312EC00552209308312EC009E
:1005D400552203308312EC00552228308312EC009C
:1005E400552209308312EC00552294308312EC001A
:0605F4005522D22108008F
:1005FA008316031389100911081288120813881325
:10060A0083128910091188130813881208120A2004
:10061A000A200A20881608168914172089100A2029
:10062A008914172089100A208914172089100A2092
:10063A0008128914172089100A2089141720891092
:10064A00881288178914172089100A208813081617
:10065A0089141720891008128914172089100A2072
:10066A0089141720891008168914172089100A205E
:10067A00081289141720891088170817881608166F
:0C068A008914172089100A206814080049
:10069600013083120313EC000130ED004B30EE0005
:1006A60090210130EC000730ED006908EE001022C1
:1006B6003A308316A60061210130EC000A30ED00C5
:1006C6006A08EE0010223A308316A6006121013036
:1006D600EC000D30ED006B08EE0010226908003AC0
:1006E600031D8A2B6A08003A031D8A2B6B08003A01
:1006F600031D8A2B01308316A0000030A100323082
:10070600A2000030A3009630A400A50130226A089A
:10071600003A031DA02B6B08003A031DA02B0130E5
:100726008316A0000030A1001930A2000030A300FB
:100736006430A4000030A50030226B08003A031D87
:10074600B22B01308316A0000030A1000F30A200AA
:100756000030A3003230A4000030A5003022023061
:10076600EC000130ED004430EE0090210230EC0048
:100776000730ED006708EE0010222F308316A60022
:1007860061210230EC000A30ED006608EE0010220E
:100796002F308316A60061210230EC000D30ED00EB
:1007A6006508EE0010226B220330EC000130ED00EC
:0807B6006108EE00902108002B
:1007BE0089218A110A128000840AE30A0319E40AC5
:0807CE00F003031DDF2B0800FE
:1007D60064240730831603139F0085018601870171
:1007E60088018901871083128714FD220130831640
:1007F600AC001A200C308316AC001A20D22203302B
:10080600A0000030A1000F30A2000030A3009630F7
:10081600A400A50130224B239F220330FB000830A1
:10082600FC007730FD00FD0B162CFC0B162CFB0B89
:06083600162C0E2C1D2CF7
:1008C80020308400413083120313F0002330E3000A
:0808D8000430E400DF230800F6
:1008460044344F344D3449344E3447344F340034F5
:0E08560051345534413452345434413400345A
:0C086400543445345234433441340034E1
:1008700053344534473455344E34443441340034D1
:0E0880005134553449344E345434413400342C
:0E088E00283444346134743461342934003425
:0E089C00283448346F34723461342934003407
:0408AA0000340034E2
:0E08AE00533441344234413444344F34003426
:0C08BC0053344534583454344134003473
:02400E004A2F37
:00000001FF
