:02000000642971
:0400060000000800EE
:10000A00103083120313FD00FD0B092800000800BD
:10001A00083083120313FC002330FD00FD0B132864
:06002A00FC0B1328080086
:1000300083160313DD1B1F288312861321288312C6
:10004000861783165D1B272883120613292883121F
:1000500006178316DD1A2F28831286123128831281
:10006000861683165D1A37288312061239288312E2
:100070000616831633183F2883120514412883126D
:1000800005108514032085108316DD194A28831274
:1000900086134C288312861783165D195228831203
:1000A00006135428831206178316DD185A28831264
:1000B00086125C288312861683165D1862288312C6
:1000C0000612642883120616831633186A288312D0
:1000D00005146C28831205108514032085108316DF
:0C00E000331C74280D2075280520080032
:1000EC008316031333105C08DD00182083163314B9
:0200FC000800FA
:0E00FE008316031332088A00310882000800BE
:10010C00831603139C1C8C280000862858089B001F
:10011C0059089A009C131C150B08F0008B135530D2
:10012C009D00AA309D009C14F01B9E288B139F28C9
:06013C008B171C110800E6
:100142008316031358089B009C131C141A08F00012
:020152000800A3
:10015400823083120313FC00DD30FD00FD0BB02858
:0A016400FC0BB028000000000800AA
:10016E0083160313851005100612861206138613C6
:10017E0083128510051086130613861206120D20A3
:10018E000D200D20861606168514032085100D20D1
:10019E008514032085100D208514032085100D2055
:1001AE0006128514032085100D208514032085105A
:1001BE00861286178514032085100D2086130616C9
:1001CE0085140320851006128514032085100D203A
:1001DE0085140320851006168514032085100D2026
:1001EE000612851403208510861706178616061626
:0E01FE008514032085100D208316331408008D
:10020C000B3083120313FB002630FC005D30FD0025
:10021C00FD0B0E29FC0B0E29FB0B0E290000000018
:02022C000800C8
:10022E002929803083160313D8003C29C030D8000A
:10023E003C299430D8003C29D430D8003C29803059
:10024E00D8003C29831603135808013A03191829BC
:10025E005808023A03191D295808033A0319202990
:10026E005808043A0319232926295903F00058087F
:10027E00F0077008D8007008DD00182083163310C0
:10028E00DB015B085A0784000008031956295B0836
:10029E005A0784000008DC007620DB0A4829331454
:0202AE00080046
:1002B0007F208A110A128000840AB10A0319B20A47
:0802C000F003031D582908009A
:1002C800BE2283120313860185010F308316860030
:1002D80020308500073083129F00B7200130DD00F1
:1002E80018200C308316DD00182001308316D80042
:1002F8000130D9004C30B8006130B9006230BA0022
:100308002030BB003130BC003330BD003A30BE0075
:100318002030BF005430C0006530C1007330C200C7
:100328007430C3006930C4006E30C5006730C60041
:10033800C701B830DA0017210230D8000130D900DF
:100348006930C8006E30C9007430CA006530CB000F
:100358007230CC006E30CD006130CE006C30CF00F2
:100368002030D0004530D1004530D2005030D30085
:100378005230D4004F30D5004D30D600D701C830A8
:10038800DA001721062101308316DD00182001301C
:100398008316D8000130D9002030DA001721013047
:1003A800D8000830D9003030DA0017210230D800E0
:1003B8000130D9002730DA001721831206180E2AD7
:1003C800AA2001308316DD00182001308316D800DA
:1003D8000130D9006630DA001721B401B501B60141
:1003E800103036020318052A36083407D800A12031
:1003F8007008B7003608A03E840070088000B60A6E
:10040800F4290230D8000130D900A030DA001721D1
:100418000621C7298618352AAA208316B401B501F2
:10042800B601103036020318282A3608483E8400E0
:100438000008F0007008B70036083407D8007008C4
:10044800D9008620B60A152A0130DD0018200130AF
:100458008316D8000130D9003830DA001721062178
:10046800C7290619552AAA2001308316DD0018204D
:1004780001308316D8000130D9005930DA0017212D
:10048800B601103036020318532A3030B700360848
:100498003407D8003030D9008620B60A452A06210C
:0604A800C729E129562AD4
:10057C0020308400503083120313F0005C3083165B
:10058C00B1000230B2005821A03084001130F000CC
:0E059C00AC308316B1000230B20058210800C6
:0E04B80031342E34523445344134443400344F
:1004C60033342E34443465346C34653474346534D2
:0204D6000034F0
:1004D80032342E3457345234493454344534003489
:1004E80057345234493454344534203443344F3427
:1004F8004D3450344C344534543445344434003449
:1005080045346D3462346534643464346534643439
:100518002D344C34613462342E3463346F346D348A
:0205280000349D
:10052A0044346134743461342034443465346C3472
:0A053A006534743465346434003411
:100544005234653461346434203444346134743452
:0405540061340034DA
:100558003034303430343034303430343034303473
:100568003034303430343034303430343034303463
:0205780000344D
:02400E00692126
:00000001FF
