:02000000752A5F
:06000600000000000800EC
:10000C000F3083120313FC004730FD00FD0B0C284E
:0A001C00FC0B0C2800000000080097
:0E002600213083120313FD00FD0B1728080084
:1000340083120313E01B2028881321288817601BD0
:100044002528081326280817E01A2A2888122B289E
:100054008816601A2F2808123028081647183428E2
:10006400091535280911891403208910E0193C2841
:1000740088133D2888176019412808134228081757
:10008400E018462888124728881660184B2808125A
:100094004C280816471850280915512809118914A5
:1000A40003208910471C58280620592813200800CB
:1000B40083120313F801F9011030FC00710DF80DDF
:1000C400F90D7408F8027508031C750FF90203187A
:1000D40072287408F80775080318750FF9070310D8
:0A00E400F00DF10DFC0B6028080080
:1000EE008312031347105B08E0001A204714080020
:1000FE009128803083120313DB00A428C030DB006C
:10010E00A4289430DB00A428D430DB00A42880304F
:10011E00DB00A428831203135B08013A031980281D
:10012E005B08023A031985285B08033A03198828ED
:10013E005B08043A03198B288E285C03F0005B08D9
:10014E00F0077008DB0047147008E0001A20471013
:0A015E005D08E0001A2047140800B5
:100168000E3083120313FD00FD0BB82800000800B1
:0E017800831203133D088A003C088200080031
:1001860083120313DE0105305E020318D1285E08D0
:100196005D07840020308000DE0AC6285E085D0701
:1001A60084008001DE035E085D07DF000A30F4008C
:1001B600F5015B08F0005C08F1005A207808F000B1
:1001C6007908F1003030F0075F088400700880007D
:1001D6000A30F400F5015B08F0005C08F1005A20D3
:1001E6007008DB007108DC0000307106031DFD2875
:1001F60000307006031D00290229DE03D6280800F8
:100206001529803083120313D2002829C030D2006A
:1002160028299430D2002829D430D20028298030C9
:10022600D2002829831203135208013A031904291C
:100236005208023A031909295208033A03190C29EC
:100246005208043A03190F2912295303F0005208E1
:10025600F0077008D2007008E0001A204710D50198
:100266005508540784000008031941295508540706
:1002760084000008DB007720D50A332947140800DC
:1002860083120313D701D8015208D9005308DA00A4
:1002960080305306F00080307002031D5429003070
:1002A6005202031862290130D7000030D8005208E4
:1002B600003CD9005308031C013EDA01DA02590852
:1002C600DB005A08DC005408DD00C3200630D500E8
:1002D6000030D6005608003C031D73295508003C23
:1002E60003188E2955085407F20001305502F00014
:1002F6000030031C013E5602F100700854078400CA
:100306000008F00072088400700880000130D502F1
:10031600031CD6036D29540884002030800057083A
:1003260058040319AC29D501D60155085407840091
:100336000008203A031DA329D50A0319D60A9829CD
:100346000130D502031CD6035508540784002D300E
:04035600800008001B
:10035A00403083120313E0001A20D4015408073CEA
:10036A00031CC92954081B3EF00003300318013E40
:10037A00F1007008BC007108BD00BC208A110A1285
:10038A00DB007720D40AB3290230E0001A20520891
:0C039A00DB005308DC00DD017F200800C0
:1003A600831203139F01C0309F0483161F179F17E4
:1003B60083125208F000F00D7010F00D7010F00D61
:1003C600701070089F041F14B4201F151F1DED29FF
:1003D6000000E9291F101E08F100F00183161E080F
:0803E600F0040030F1040800EE
:1003EE00FF3083120313C800FF30C900FF30CA006C
:1003FE00FF309F01C0309F0483161F179F17831273
:04040E001F140800AF
:10041200831603138910091108128812081388130E
:1004220083128910091188130813881208120620F2
:100432000620062088160816891403208910062033
:1004420089140320891006208914032089100620AC
:1004520008128914032089100620891403208910A8
:100462008812881789140320891006208813081619
:100472008914032089100812891403208910062088
:100482008914032089100816891403208910062074
:10049200081289140320891088170817881608166D
:0C04A2008914032089100620471408006C
:1004AE0083120313D3015308520784000008031963
:1004BE00682A5308520784000008DB007720D30A0D
:0404CE005A2A08009E
:1004D200BC208A110A128000840ABC0A0319BD0AD0
:0804E200F003031D692A080064
:1004EA00433083120313A0004F30A1005530A200FD
:1004FA004E30A3005430A4005330A5002E30A6007D
:10050A002E30A7003A30A8002030A900AA01A03056
:10051A00AB002030AC00A030AD002030AE00A030DF
:10052A00AF002030B000A030B1002030B200A030BF
:10053A00B3002030B400A030B5002030B600A0309F
:10054A00B7002030B800A030B9002030BA00BB0193
:10055A000E3083169F00051409220130E0001A208C
:10056A000C30E0001A20F721D201D321700883123F
:10057A00C5007108C6007008D2007108D3003E3069
:10058A00D40043210130D2000130D3002030D400FE
:10059A0003213E30D20057224C084606031DD72AB3
:1005AA0045084B060319072B3F30F4000030F500CD
:1005BA004508F0004608F1005A207008CD0071087D
:1005CA00CE00CF01D0010230D2000130D3002B304F
:1005DA00D4000321D1015008003C031DFE2A4F0814
:1005EA00003C031DFE2A4E08003C031DFE2A4D084E
:1005FA0051020318072B0230D200510AD300AD2151
:10060A00D10AF02A0830FB009D30FC000530FD00BD
:10061A00FD0B0D2BFC0B0D2BFB0B0D2B0000000013
:0C062A004508CB004608CC00B92A1A2B6A
:100636001F341F341F341F341F341F341F341F341C
:02400E004A2F37
:00000001FF
