:02000000B6291F
:1000060083120313FB01FA01F9018030F800F10CA9
:10001600F00C031C17287408F90775080318750FE8
:10002600FA070318FB0A0310F01F1F287408FA07C3
:1000360075080318750FFB07FB0CFA0CF90CF80C86
:10004600031C0A287B08F3007A08F2007908F100FD
:060056007808F00008002C
:10005C00831203132230FC00F801F901FA01FB01B1
:10006C00FC03031964280310FB0CFA0CF90CF80CB4
:10007C00F30CF20CF10CF00C031C3628FC030319E6
:10008C0056287408F80775080318750FF9077608D1
:10009C000318760FFA0777080318770FFB073A282F
:1000AC007408F80775080318750FF9077608031814
:0E00BC00760FFA0777080318770FFB07080086
:1000CA00710DF80DF90D7408F8027508031C750F07
:1000DA00F902F00DF10D0F30FC00710DF80DF90D5C
:1000EA007408701C7E28F8027508031C750FF90243
:1000FA008328F80775080318750FF907F00DF10D35
:10010A00FC0B722870188F287408F80775080318F2
:08011A00750FF9070000080051
:0E0122008312031325088A00240882000800B7
:10013000831203132A08AE002B08AF000130B00071
:100140000030B10000302D06031DA82800302C0619
:10015000031DAF280130F0000030F100D0288030BE
:100160003106F00080302D067002031DB9282C08DE
:1001700030020318CC282E08F0002F08F1002A08BE
:10018000F4002B08F50003207008AE007108AF00E2
:10019000B00A0319B10AAF282E08F0002F08F100A9
:0201A000080055
:1001A200831203137408003A031DE0287508003A0D
:1001B200031DE028FF30F0007F30F100392983125F
:1001C2000313FD01F901F8017108700403190034E9
:1001D20071087506FA00FA1BFD09FB01F51FF628E6
:1001E200F409F509F40A0319F50AF11FFD28F009CB
:1001F200F109F00A0319F10A71087504FA00FA1BF1
:10020200122965207B182529FD1F0034F009F10908
:10021200F00A0319F10AF809F909F80A0319F90AA7
:100222000034F51F2129F11B1D297108F9007008FE
:10023200F800F101F0010529F101F001F00A0034A2
:10024200F109F009FB0A0229F80A0319F90A7408EC
:100252007802031D052975087902031D0529F90194
:10026200F801F00A0319F10AF11F05290000FF3411
:02027200080082
:10027400D03083120313AC000730AD00AE01AF01E0
:10028400D030F0000730F1000030F2000030F3000D
:100294002A08F4002B08F500F601F7012E20700857
:1002A400AC007108AD007208AE007308AF000030F6
:1002B4007302031D672900307202031D672902308F
:1002C4007102031D6729B230700203186A29A92933
:1002D400B230F0000230F100F201F3017008AC0218
:1002E4007108031C710FAD027208031C720FAE0279
:1002F4007308031C730FAF020530F0007008031974
:100304008A29AF0CAE0CAD0CAC0CAF13FF3E8129A7
:100314002C08F0002D08F1002E08F2002F08F3003D
:100324000130AC02031CAD02031CAE02031CAF027D
:1003340070087104720473040319A92900000000F1
:100344000000000000000000000000008A290800EE
:1003540091208A110A128000840AA40A0319A50AAA
:08036400F003031DAA290800A3
:10036C00013083120313A000A1011E30A200A301CF
:10037C00A801A901831686018801831286018801D0
:10038C002208013EF40000300318013E2307F5005B
:10039C002008F0002108F100D1207808F00079083D
:1003AC00F10000307106031DDD29003070060319C1
:1003BC00202AA601A70180302706F00080307002A9
:1003CC00031DEA291430260203181C2A0230AA0045
:1003DC000030AB002808AC002908AD00982070084C
:1003EC0086000230AA000030AB002808073CAC00A5
:1003FC002908031C013EAD01AD029820700888004D
:10040C003230AA000030AB003A21A60A0319A70A21
:10041C00A80A0319A90A00302906031D172A083057
:10042C002806031D1B2AA801A901E129A00A03190A
:0A043C00A10AC62986018801222AC0
:02400E004A2F37
:00000001FF
