:02000000A62B2D
:06000600000000000800EC
:10000C000F3083120313FC004730FD00FD0B0C284E
:0A001C00FC0B0C2800000000080097
:0E002600213083120313FD00FD0B1728080084
:1000340083120313DD1B20288813212888175D1BD6
:100044002528081326280817DD1A2A2888122B28A1
:1000540088165D1A2F2808123028081651183428DB
:10006400091535280911891403208910DD193C2844
:1000740088133D2888175D1941280813422808175A
:10008400DD1846288812472888165D184B28081260
:100094004C2808165118502809155128091189149B
:1000A40003208910511C58280620592813200800C1
:0800B400FA1FF21300300800EE
:1000BC007B15FB1F68280130F300F201F101F00100
:0800CC00FA0DF20CFF300800F0
:0E00D400F201F101F001F801F3010030080023
:1000E2000E3083120313FD00FD0B7528000008007B
:1000F200FB14FB1F8328FF30F300F200F100F00035
:08010200FA0DF20CFF300800B9
:0E010A008312031353088A0052088200080073
:10011800831203132230FC00F801F901FA01FB01F4
:10012800FC030319C2280310FB0CFA0CF90CF80C99
:10013800F30CF20CF10CF00C031C9428FC030319CB
:10014800B4287408F80775080318750FF9077608B6
:100158000318760FFA0777080318770FFB07982814
:100168007408F80775080318750FF9077608031857
:0E017800760FFA0777080318770FFB070800C9
:100186008312031351105C08DD001A205114080075
:10019600A0017208031DE0287108F2007008F10042
:1001A600F001A0157208031DE0287108F200F101A4
:1001B600A011201672080319EE282008F302031D69
:1001C600031CF2280310F21BF628F00DF10DF20DB8
:1001D600F30BE628F2280130FC006A20F9280230E9
:0E01E600FC005E20F9280430FC005A200800BE
:1001F4007B14FB1F0529F201FA1FFF30F200F10006
:0A020400F000FA0DF20CFF300800C4
:10020E00710DF80DF90D7408F8027508031C750FC1
:10021E00F902F00DF10D0F30FC00710DF80DF90D16
:10022E007408701C2029F8027508031C750FF9025A
:10023E002529F80775080318750FF907F00DF10D4C
:10024E00FC0B1429701831297408F8077508031867
:08025E00750FF907000008000C
:10026600D03083120313D8000730D900DA01DB013E
:10027600D030F0000730F1000030F2000030F3001B
:100286005608F4005708F500F601F7018C207008AF
:10029600D8007108D9007208DA007308DB00003054
:1002A6007302031D602900307202031D60290230AB
:1002B6007102031D6029B230700203186329A22956
:1002C600B230F0000230F100F201F3017008D802FA
:1002D6007108031C710FD9027208031C720FDA022F
:1002E6007308031C730FDB020530F0007008031956
:1002F6008329DB0CDA0CD90CD80CDB13FF3E7A29E8
:100306005808F0005908F1005A08F2005B08F3009B
:100316000130D802031CD902031CDA02031CDB02DB
:1003260070087104720473040319A2290000000006
:100336000000000000000000000000008329080003
:1003460083120313FB0173080319E0297208FA00EC
:10035600F2178E30F302F31FE329F309F30A08308C
:100366007302031CC629F300F10D7208F100F201B5
:1003760008307302031CC629F300F10DF10173085E
:10038600031D0310CE2973080319CE290310F20C9E
:10039600F10CF30BC9297B1B711CD829031CD82926
:1003A600F10A0319F20AF21BEF29FA1FF229F209E0
:1003B600F109F10A0319F20AF229F201F101F2290F
:1003C6007B14FB1FF529F201FA1FF529FF30F20015
:1003D600F100FA0DF20CF5290130FC00F729003086
:1003E600FC00F729FF30FC00FC080319FB29FA2062
:0A03F6007108F0007208F100080021
:10040000831203137408003A031D0F2A7508003A7B
:10041000031D0F2AFF30F0007F30F100682A83129D
:100420000313FD01F901F801710870040319003488
:1004300071087506FA00FA1BFD09FB01F51F252A54
:10044000F409F509F40A0319F50AF11F2C2AF00939
:10045000F109F00A0319F10A71087504FA00FA1B90
:10046000412A07217B18542AFD1F0034F009F109A5
:10047000F00A0319F10AF809F909F80A0319F90A47
:100480000034F51F502AF11B4C2A7108F90070083E
:10049000F800F101F001342AF101F001F00A003412
:1004A000F109F009FB0A312AF80A0319F90A74085C
:1004B0007802031D342A75087902031D342AF901D4
:1004C000F801F00A0319F10AF11F342A0000FF3481
:0204D000080022
:1004D200831203139F01C0309F0483161F179F17B7
:1004E20083125608F000F00D7010F00D7010F00D30
:1004F200701070089F041F1471201F151F1D832A7E
:1005020000007F2A1F101E08F100F00183161E084A
:08051200F0040030F1040800C0
:10051A0083120313FB017308031D77080319E42AE6
:10052A0072087606FA007708F3077E30031CA12AC0
:10053A00F3020318E72AA42AF302031CEA2A720820
:10054A00F8007108FC007008FD00F817F617031090
:10055A00F201F101F0011830A0007D1CBE2A7408D6
:10056A00F00775080318750FF10776080318760F58
:10057A00F207F20CF10CF00CF80CFC0CFD0C031059
:10058A00A00BB22AF21BCE2AF80DF00DF10DF20DD6
:10059A00F3037B1B701CE02AF81FE02AF00A0319F8
:1005AA00F10A0319F20A031DE02AF20CF10CF00C0D
:1005BA00F30A0319E72AFA1FF2130030EC2A013072
:1005CA006A20EC2A02307920EC2A04305E200000EE
:0205DA00080017
:1005DC0085208A110A128000840AD20A0319D30AD0
:0805EC00F003031DEE2A0800D4
:1005F4000C2B803083120313D6001F2BC030D6007F
:100604001F2B9430D6001F2BD430D6001F2B8030E4
:10061400D6001F2B831203135608013A0319FB2A31
:100624005608023A0319002B5608033A0319032B00
:100634005608043A0319062B092B5703F0005608F1
:10064400F0077008D6007008DD001A205110D90197
:1006540059085807840000080319382B590858070B
:1006640084000008DC00C320D90A2A2B5114080096
:10067400831203137008F8007108F000F101F2010D
:10068400F301FB01FC019630F300FA01F01F502B3B
:10069400F809F009F80A0319F00AFA177008F100CA
:0C06A4007808F000F801F201CB200800FB
:1006B000831603138910091108128812081388136E
:1006C0008312891009118813081388120812062052
:1006D0000620062088160816891403208910062093
:1006E000891403208910062089140320891006200C
:1006F0000812891403208910062089140320891008
:100700008812881789140320891006208813081678
:1007100089140320891008128914032089100620E7
:1007200089140320891008168914032089100620D3
:1007300008128914032089108817081788160816CC
:0C074000891403208910062051140800C1
:10074C00D4248E30831603139F000514860158237E
:10075C000130DD001A200C30DD001A200130D600EB
:10076C000130D7004330D800FA22E830D6000330ED
:10077C00D70033210130D6000130D7002A30D80001
:10078C00FA220230D6000130D7002130D800FA22EC
:10079C00E830D6000330D7003321D6016922700827
:1007AC008312B5007108B600E830F4000330F50090
:1007BC0000227008303EB7006430F4000030F500C1
:1007CC003508F0003608F10000220A30F400003041
:1007DC00F50000227808F0007908F1007008303E2E
:1007EC00B8000A30F4000030F5003508F000360887
:1007FC00F10000220A30F4000030F50000227808E5
:10080C00F0007908F1007008303EB9000A30F400AD
:10081C000030F5003508F0003608F10000227808A9
:10082C00F0007908F1007008303EBA000130D600B3
:10083C000A30D7003730D800FA228030023AF00064
:10084C00803036067002031D2D2C3508003C031831
:10085C00322CFF308600332C86013508F000360828
:10086C00F1003A230A30F4002830F5002030F6006D
:10087C007730F7008D227008CD007108CE00720819
:10088C00CF007308D0000030F4000030F5007A304F
:10089C00F6008830F7008D22A3217008D40071086F
:1008AC00D500E830F4000330F50000227008303E2B
:1008BC00BC006430F4000030F5005408F00055081A
:1008CC00F10000220A30F4000030F5000022780814
:1008DC00F0007908F1007008303EBE000A30F400D8
:1008EC000030F5005408F0005508F10000220A30E1
:1008FC00F4000030F50000227808F0007908F100CF
:10090C007008303EBF000A30F4000030F500540887
:10091C00F0005508F10000227808F0007908F10089
:10092C007008303EC0000230D6000830D7003C3092
:08093C00D800FA22D32BA12CF4
:1009A800213084002C3083120313F000A730D200CA
:0809B8000430D300EE22080018
:10094E00543445344E34533441344F343A342034D5
:02095E00003463
:1009600043344F344E3454344134473445344D3499
:060970003A34203400348B
:040976000034003415
:0A097A0020342034203420340034EF
:0E09840020342C3420342034203456340034F7
:1009920049346E3469346334693461346E34643496
:0409A2006F3400347A
:02400E004A2F37
:00000001FF
