:020000009A2B39
:0E000600213083120313FD00FD0B07280800B4
:100014000F3083120313FC004730FD00FD0B102842
:0A002400FC0B10280000000008008B
:06002E00000000000800C4
:1000340083120313E01B2028881321288817601BD0
:100044002528081326280817E01A2A2888122B289E
:100054008816601A2F280812302808162718342802
:10006400091535280911891417208910E0193C282D
:1000740088133D2888176019412808134228081757
:10008400E018462888124728881660184B2808125A
:100094004C280816271850280915512809118914C5
:1000A40017208910271C58280A20592803200800E3
:1000B4008312031327105F08E0001A202714080096
:1000C400FB09FA09F909F809F80A0319F90A0319E5
:0800D400FA0A0319FB0A0800F7
:0E00DC00831203132B088A002A0882000800F2
:1000EA000E3083120313FD00FD0B7928000008006F
:1000FA007408F8027508031C750FF9027608031CC8
:10010A00760FFA027708031C770FFB02F30D07300C
:10011A00FC00730DF80DF90DFA0DFB0D7408731C34
:10012A00A428F8027508031C750FF9027608031C47
:10013A00760FFA027708031C770FFB02B128F8073B
:10014A0075080318750FF90776080318760FFA076A
:10015A0077080318770FFB07F30DFC0B8E28720D37
:10016A00F80DF90DFA0DFB0D7408731CCA28F80274
:10017A007508031C750FF9027608031C760FFA023C
:10018A007708031C770FFB02D728F80775080318AE
:10019A00750FF90776080318760FFA077708031818
:1001AA00770FFB07F20D0730FC00720DF80DF90D01
:1001BA00FA0DFB0D7408721CF028F8027508031C6E
:1001CA00750FF9027608031C760FFA027708031CEA
:1001DA00770FFB02FD28F80775080318750FF90752
:1001EA0076080318760FFA0777080318770FFB07C4
:1001FA00F20DFC0BDA28710DF80DF90DFA0DFB0D55
:10020A007408721C1629F8027508031C750FF90286
:10021A007608031C760FFA027708031C770FFB0295
:10022A002329F80775080318750FF90776080318C4
:10023A00760FFA0777080318770FFB07F10D0730D7
:10024A00FC00710DF80DF90DFA0DFB0D7408711C07
:10025A003C29F8027508031C750FF9027608031C7D
:10026A00760FFA027708031C770FFB024929F80771
:10027A0075080318750FF90776080318760FFA0739
:10028A0077080318770FFB07F10DFC0B2629700D71
:10029A00F80DF90DFA0DFB0D7408711C6229F802AC
:1002AA007508031C750FF9027608031C760FFA020B
:1002BA007708031C770FFB026F29F80775080318E4
:1002CA00750FF90776080318760FFA0777080318E7
:1002DA00770FFB07F00D0730FC00700DF80DF90DD4
:1002EA00FA0DFB0D7408701C8829F8027508031CA6
:1002FA00750FF9027608031C760FFA027708031CB9
:10030A00770FFB029529F80775080318750FF90787
:10031A0076080318760FFA0777080318770FFB0792
:10032A00F00DFC0B72297018A8297408F8077508D3
:10033A000318750FF90776080318760FFA07770876
:08034A000318770FFB07080000
:10035200831203139F01C0309F0483161F179F1738
:1003620083125B08F000F00D7010F00D7010F00DAC
:10037200701070089F041F1475201F151F1DC329BC
:100382000000BF291F101E08F100F00183161E088D
:08039200F0040030F104080042
:10039A006E208A110A128000840AAA0A0319AB0A7B
:0803AA00F003031DCD2908003A
:1003B200831203137408003A031DF4297508003AE6
:1003C200031DF4297608003A031DF4297708003A40
:1003D200031DF429FF30F000FF30F100FF30F2007E
:1003E2007F30F3008D2A83120313FC01F71BFC0AF2
:1003F200FD01FB01FA01F901F801730872047104AD
:1004020070040319882A73087706A000A01BFD094F
:10041200F71F162AF409F509F609F709F40A031970
:10042200F50A0319F60A0319F70AF31F232AF0093A
:10043200F109F209F309F00A0319F10A0319F20AA0
:100442000319F30A73087704A000A01B442A7D2035
:10045200FC1B612AFD1F882AF009F109F209F30940
:10046200F00A0319F10A0319F20A0319F30AF80947
:10047200F909FA09FB09F80A0319F90A0319FA0A30
:100482000319FB0A882AF71F5B2AF31B552A7308F4
:10049200FB007208FA007108F9007008F800F30115
:1004A200F201F101F0012B2AF301F201F101F00155
:1004B200F00A0034F309F209F109F009FC17282ABD
:1004C200F80A0319F90A0319FA0A0319FB0A74084C
:1004D2007802031D2B2A75087902031D2B2A760840
:1004E2007A02031D2B2A77087B02031D2B2AFB01AC
:1004F200FA01F901F801F00A0319F10A0319F20AE3
:100502000319F30AF31F2B2AA0012016FF34A001BE
:0A0512007C1C8C2A6220003E0800C9
:10051C00831203132230FC00F801F901FA01FB01EC
:10052C00FC030319C42A0310FB0CFA0CF90CF80C8D
:10053C00F30CF20CF10CF00C031C962AFC030319BF
:10054C00B62A7408F80775080318750FF9077608AA
:10055C000318760FFA0777080318770FFB079A2A08
:10056C007408F80775080318750FF907760803184F
:0E057C00760FFA0777080318770FFB070800C1
:10058A00D72A803083120313DB00EA2AC030DB004B
:10059A00EA2A9430DB00EA2AD430DB00EA2A8030E7
:1005AA00DB00EA2A831203135B08013A0319C62AFD
:1005BA005B08023A0319CB2A5B08033A0319CE2ACD
:1005CA005B08043A0319D12AD42A5C03F0005B08B9
:1005DA00F0077008DB007008E0001A202710DE011F
:1005EA005E085D07840000080319032B5E085D0797
:1005FA0084000008DF005A20DE0AF52A27140800C2
:10060A008316031389100911081288120813881314
:10061A0083128910091188130813881208120A20F4
:10062A000A200A20881608168914172089100A2019
:10063A008914172089100A208914172089100A2082
:10064A0008128914172089100A2089141720891082
:10065A00881288178914172089100A208813081607
:10066A0089141720891008128914172089100A2062
:10067A0089141720891008168914172089100A204E
:10068A00081289141720891088170817881608165F
:0C069A008914172089100A20271408007A
:1006A60083120313DC015C085B078400000803194E
:1006B600642B5C085B0784000008DF005A20DC0A14
:0406C600562B0800A7
:1006CA00772B803083120313DB008A2BC030DB00C8
:1006DA008A2B9430DB008A2BD430DB008A2B8030C3
:1006EA00DB008A2B831203135B08013A0319662B7A
:1006FA005B08023A03196B2B5B08033A03196E2B4A
:10070A005B08043A0319712B742B5C03F0005B0835
:10071A00F0077008DB0027147008E0001A20271081
:0A072A005D08E0001A202714080003
:100734008E30831603139F001C148B0105140523AC
:100744000C30E0001A200130E0001A203E30AC00EA
:100754002030AD004C30AE004130AF004230B0002C
:100764002E30B1004D30B2004330B3005530B400E8
:100774002E30B5003230B6003030B7003130B8001A
:100784003430B9002030BA003C30BB00BC012C30FE
:10079400A9000130DB000130DC002908DD00C5229E
:1007A4004C30BD004330BE004430BF002030C00098
:1007B4002030C1002030C2005630C3004F30C40086
:1007C4004C30C5005430C6004930C7004D30C80015
:1007D4004530C9005430CA005230CB004F30CC00F1
:1007E400CD013D30A9000230DB000130DC002908D6
:1007F400DD00C5221530FB004B30FC00BE30FD008F
:10080400FD0B022CFC0B022CFB0B022C00005430C1
:10081400CE004530CF004E30D0005330D1004130AF
:10082400D2004F30D3003A30D4002030D500D60166
:100834004E30A900DB01A92170088312A5007108BC
:10084400A6000230DB000130DC002908DD00C522EF
:100854002508F0002608F100F201F3018830F400C5
:100864001330F500F601F7018E227008A10071081B
:10087400A2007208A3007308A400FF30F400033040
:10088400F500F601F701D9217008A1007108A20052
:100894007208A3007308A400E830F4000330F500E4
:1008A400F601F701D9217008A8000230DB000930F5
:1008B400DC007008303EDD0065232C30DF005A2058
:1008C4006430F400F501F601F7012108F000220874
:1008D400F1002308F2002408F300D9210A30F400BF
:1008E400F501F601F701D9217808F0007908F10043
:1008F4007A08F2007B08F3007008A8007008303E04
:10090400DF005A200A30F400F501F601F70121084E
:10091400F0002208F1002308F2002408F300D92192
:100924000A30F400F501F601F701D9217808F00046
:100934007908F1007A08F2007B08F3007008A80037
:100944007008303EDF005A200A30F400F501F60149
:10095400F7012108F0002208F1002308F20024081E
:10096400F300D9217808F0007908F1007A08F20040
:100974007B08F3007008A8007008303EDF005A209E
:100984002030D7005630D8002030D900DA01573053
:10099400DB0053230330FC009730FD00FD0BD02C0B
:0C09A400FC0BD02C000000001C2CD72CF9
:1009B0003E3420344C34413442342E344D344334AC
:1009C00055342E34323430343134343420343C34E1
:0209D0000034F1
:1009D2004C344334443420342034203456344F349D
:1009E2004C34543449344D344534543452344F34F5
:0209F2000034CF
:1009F400543445344E34533441344F343A3420342F
:020A04000034BC
:080A0600203456342034003482
:02400E004A2F37
:00000001FF
