:020000002329B2
:10000600831203132230FC00F801F901FA01FB0107
:10001600FC03031939280310FB0CFA0CF90CF80C35
:10002600F30CF20CF10CF00C031C0B28FC03031967
:100036002B287408F80775080318750FF907760852
:100046000318760FFA0777080318770FFB070F28B0
:100056007408F80775080318750FF907760803186A
:0E006600760FFA0777080318770FFB070800DC
:0E0074008312031329088A002808820008005E
:10008200D03083120313AC000730AD00AE01AF01D4
:10009200D030F0000730F1000030F2000030F30001
:1000A2002A08F4002B08F500F601F7010320700876
:1000B200AC007108AD007208AE007308AF000030EA
:1000C2007302031D6E2800307202031D6E28023077
:1000D2007102031D6E28B230700203187128B02815
:1000E200B230F0000230F100F201F3017008AC020C
:1000F2007108031C710FAD027208031C720FAE026D
:100102007308031C730FAF020530F0007008031967
:100112009128AF0CAE0CAD0CAC0CAF13FF3E88288F
:100122002C08F0002D08F1002E08F2002F08F30031
:100132000130AC02031CAD02031CAE02031CAF0271
:1001420070087104720473040319B02800000000DF
:1001520000000000000000000000000091280800DC
:100162003A208A110A128000840AA80A0319A90AED
:08017200F003031DB128080091
:10017A0000308312031386180130A200A30122184B
:0A018A00C8280910C928091408004C
:1001940000308312031306190130A400A5012418AA
:0A01A400D5288710D628871408001C
:1001AE0000308312031306180130A600A701003099
:1001BE002706031DE42800302606031D2229080801
:1001CE00FF3A031D0729A001A10180302106F0008E
:1001DE0080307002031DF5286430200203180729B1
:1001EE0087142008AA002108AB00412087102008A0
:1001FE00AA002108AB004120A00A0319A10AEC288D
:10020E00003006180130A600A701880A87140910CD
:10021E004E30FC00EB30FD00FD0B1329FC0B1329B7
:10022E00871009144E30FC00EB30FD00FD0B1D292C
:08023E00FC0B1D29DE2808005D
:1002460083120313A001A101A201A301A401A50128
:10025600A601A7018316061486140615880109103F
:1002660087108312880109108714D720BD20CA2061
:0402760038293C29BE
:02400E004A2F37
:00000001FF
