:020000001628C0
:0E0006008312031321088A00200882000800DC
:1000140003208A110A128000840AA00A0319A10A83
:08002400F003031D0A28080087
:10002C000630831603139F0007309C008501860160
:10003C008701880189018312850186018701880166
:10004C008901860188010630FB001330FC00AD30BD
:10005C00FD00FD0B2F28FC0B2F28FB0B2F2800007D
:10006C000000FF308600FF3088000630FB001330A4
:10007C00FC00AD30FD00FD0B4128FC0B4128FB0BB7
:0A008C0041280000000027284A2840
:02400E004A2F37
:00000001FF
