:02000000F52BDE
:0E000600213083120313FD00FD0B07280800B4
:100014000F3083120313FC004730FD00FD0B102842
:0A002400FC0B10280000000008008B
:06002E00000000000800C4
:1000340083160313A51B21288312881323288312F4
:1000440088178316251B2928831208132B2883124B
:1000540008178316A51A31288312881233288312AD
:1000640088168316251A3928831208123B2883120E
:10007400081667183F280915402809118914172004
:1000840089108316A5194928831288134B288312D3
:1000940088178316251951288312081353288312AD
:1000A40008178316A5185928831288125B2883120F
:1000B4008816831625186128831208126328831270
:1000C4000816671867280915682809118914172064
:0E00D4008910671C6F280A207028032008007E
:0E00E200F201F101F001F801F3010030080015
:1000F0007B15FB1F82280130F300F201F101F001B2
:08010000FA0DF20CFF300800BB
:08010800FA1FF2130030080099
:10011000A0017208031D9D287108F2007008F1000B
:10012000F001A0157208031D9D287108F200F1016D
:10013000A011201672080319AB282008F302031D32
:10014000031CAF280310F21BB328F00DF10DF20DC4
:10015000F30BA328AF280130FC007120B628023031
:0E016000FC007820B6280430FC008420080043
:10016E0083120313671083162408A5001A20671440
:02017E00080077
:100180000E3083120313FD00FD0BC428000008008D
:10019000710DF80DF90D7408F8027508031C750F40
:1001A000F902F00DF10D0F30FC00710DF80DF90D95
:1001B0007408701CE128F8027508031C750FF90219
:1001C000E628F80775080318750FF907F00DF10D0B
:1001D000FC0BD5287018F2287408F8077508031866
:0801E000750FF907000008008B
:1001E800FB14FB1FFE28FF30F300F200F100F000C3
:0801F800FA0DF20CFF300800C3
:1002000083120313F801F9011030FC00710DF80D91
:10021000F90D7408F8027508031C750FF90203182C
:1002200018297408F80775080318750FF9070310E3
:0A023000F00DF10DFC0B062908008B
:10023A0083120313FB01FA01F9018030F800F10C73
:10024A00F00C031C31297408F90775080318750F97
:10025A00FA070318FB0A0310F01F39297408FA0772
:10026A0075080318750FFB07FB0CFA0CF90CF80C50
:10027A00031C24297B08F3007A08F2007908F100AC
:06028A007808F0000800F6
:100290007B14FB1F5329F201FA1FFF30F200F1001B
:0A02A000F000FA0DF20CFF30080028
:0E02AA008312031360088A005F0882000800B8
:1002B800831603130711831212150C3097040800D4
:1002C800831203137008F8007108F000F101F201BD
:1002D800F301FB01FC019630F300FA01F01F7A29C3
:1002E800F809F009F80A0319F00AFA177008F1007A
:0C02F8007808F000F801F20188200800EE
:10030400831603131208013EF000F1010318F10AE9
:1003140083126E08F400F5011D210630F200700806
:10032400F4007108F500720803199D29F50CF40C0A
:10033400F513FF3E96290430F1007408F0007108AB
:100344000319A829F00D7010FF3EA2293030700562
:10035400F3007408F0007508F100F10CF00CF113CF
:10036400F10CF00CF113700895000F309705730829
:0403740097040800E2
:10037800831203139F01C0309F0483161F179F1712
:1003880083126E08F000F00D7010F00D7010F00D73
:10039800701070089F041F14C0201F151F1DD62938
:1003A8000000D2291F101E08F100F00183161E0854
:0803B800F0040030F10408001C
:1003C00083120313EE0105306E020318F0296E0844
:1003D000831622078400203080008312EE0AE3296E
:1003E0006E0883162207840080018312EE036E08D4
:1003F000831622078312EF000A30F400F5018316FA
:100400002008F0002108F10000217808F0007908A8
:10041000F1003030F0076F088400700880000A3067
:10042000F400F50183162008F0002108F1000021F6
:1004300070088316A0007108A10000307106031D2A
:10044000232A00307006031D262A292A8312EE0370
:04045000F729080080
:0C04540083120313950117129712080081
:1004600083160313891009110812881208138813C0
:1004700083128910091188130813881208120A20A0
:100480000A200A20881608168914172089100A20C5
:100490008914172089100A208914172089100A202E
:1004A00008128914172089100A208914172089102E
:1004B000881288178914172089100A2088130816B3
:1004C00089141720891008128914172089100A200E
:1004D00089141720891008168914172089100A20FA
:1004E000081289141720891088170817881608160B
:0C04F0008914172089100A2067140800E6
:1004FC0055218A110A128000840ADF0A0319E00AC6
:08050C00F003031D7E2A080024
:100514009C2A803083160313A000AF2AC030A000A9
:10052400AF2A9430A000AF2AD430A000AF2A803084
:10053400A000AF2A831603132008013A03198B2A5B
:100544002008023A0319902A2008033A0319932A2F
:100554002008043A0319962A992A2103F000200856
:10056400F0077008A0007008A5001A206710EE01BB
:100574006E0883162207840000080319CB2A83120D
:100584006E088316220784000008A400B720EE0A30
:08059400BA2A83126714080063
:10059C00831203137408003A031DDD2A7508003A10
:1005AC00031DDD2AFF30F0007F30F100362B831263
:1005BC000313FD01F901F8017108700403190034EB
:1005CC0071087506FA00FA1BFD09FB01F51FF32AE9
:1005DC00F409F509F40A0319F50AF11FFA2AF009CE
:1005EC00F109F00A0319F10A71087504FA00FA1BF3
:1005FC000F2BC8207B18222BFD1F0034F009F109AA
:10060C00F00A0319F10AF809F909F80A0319F90AA9
:10061C000034F51F1E2BF11B1A2B7108F900700802
:10062C00F800F101F001022BF101F001F00A0034A5
:10063C00F109F009FB0AFF2AF80A0319F90A7408F0
:10064C007802031D022B75087902031D022BF90198
:10065C00F801F00A0319F10AF11F022B0000FF3414
:02066C00080084
:10066E0083120313FB017308031D770803198E2BE6
:10067E0072087606FA007708F3077E30031C4B2BC0
:10068E00F3020318912B4E2BF302031C942B7208CA
:10069E00F8007108FC007008FD00F817F61703103B
:1006AE00F201F101F0011830A0007D1C682B7408D6
:1006BE00F00775080318750FF10776080318760F03
:1006CE00F207F20CF10CF00CF80CFC0CFD0C031004
:1006DE00A00B5C2BF21B782BF80DF00DF10DF20D2B
:1006EE00F3037B1B701C8A2BF81F8A2BF00A03194D
:1006FE00F10A0319F20A031D8A2BF20CF10CF00C0D
:10070E00F30A0319912BFA1FF2130030962B0130C6
:10071E007120962B0230F420962B043078200000A6
:02072E000800C1
:1007300083120313FB0173080319D52B7208FA0007
:10074000F2178E30F302F31FD82BF309F30A0830A7
:100750007302031CBB2BF300F10D7208F100F201D0
:1007600008307302031CBB2BF300F10DF101730879
:10077000031D0310C32B73080319C32B0310F20CC2
:10078000F10CF30BBE2B7B1B711CCD2B031CCD2B53
:10079000F10A0319F20AF21BE42BFA1FE72BF20904
:1007A000F109F10A0319F20AE72BF201F101E72B33
:1007B0007B14FB1FEA2BF201FA1FEA2BFF30F20039
:1007C000F100FA0DF20CEA2B0130FC00EC2B0030AA
:1007D000FC00EC2BFF30FC00FC080319F02B482137
:0A07E0007108F0007208F100080033
:1007EA0016250930831603139F0007309C00023038
:1007FA008500860183128601831687018312870189
:10080A00871487102730FC00F530FD00FD0B0B2CF8
:10081A00FC0B0B2C87144E30FC00EB30FD00FD0B5B
:10082A00142CFC0B142C87102730FC00F530FD002B
:10083A00FD0B1D2CFC0B1D2C871430220130831656
:10084A00A5001A200C308316A5001A200130831641
:10085A00A0000130A1002130A2008A2202308316B2
:10086A00A0000130A1003630A2008A221A30FB0013
:10087A005E30FC006E30FD00FD0B412CFC0B412C60
:10088A00FB0B412C000001308316A5001A20013011
:10089A008316A0000130A1004730A2008A2202304C
:1008AA008316A0000130A1005430A2008A228230AF
:1008BA00FC00DD30FD00FD0B602CFC0B602C000001
:1008CA000000121492106330831692002A225C21CF
:1008DA000130EE00BC217008F2007108F300F30C3D
:1008EA00F20CF313F30CF20CF31372088312D20016
:1008FA007308D30072088316A0007308A100613040
:10090A00A200E021013083160313A0000C30A100DD
:10091A006130A2008A220130EE00BC2170088312E5
:10092A00B2007108B30064210030F4000030F50011
:10093A000030F6007D30F700372398237008B200A4
:10094A007108B3007008EE0082213208F000330803
:10095A00F1006430F4000030F5001D21FF30F4008E
:10096A00F501CE227008B4007108B500700883162C
:10097A00A0007108A1006830A200E02102308316AD
:10098A000313A0000B30A1006830A2008A22253090
:0A099A008316A400B7206D2CD12CA9
:100A2C00213084003E3083120313F000D730DF00F6
:080A3C000430E0007E220800F6
:1009AE00543445345334543445342E3444342E3474
:1009BE0043344F344E34543452344F344C34453423
:0209CE000034F3
:0409D00000340034BB
:0409D40000340034B7
:1009D800563445344E3454344F3449344E34483404
:1009E80041342E342E342E342E34503457344D3472
:0209F8000034C9
:1009FA0043344F344E3454344134473445344D34FF
:060A0A003A3420340034F0
:040A1000003400347A
:100A140052345A342E344334493443344C342E340F
:060A24003A3420340034D6
:02400E004A2F37
:00000001FF
