:020000004D2B86
:06000600000000000800EC
:10000C000F3083120313FC004730FD00FD0B0C284E
:0A001C00FC0B0C2800000000080097
:0E002600213083120313FD00FD0B1728080084
:1000340083120313F801F9011030FC00710DF80D5F
:10004400F90D7408F8027508031C750FF9020318FA
:1000540032287408F80775080318750FF907031098
:0A006400F00DF10DFC0B2028080040
:10006E0083120313E61B3D2888133E288817661B50
:10007E004228081343280817E61A472888124828EA
:10008E008816661A4C2808124D2808164F18512843
:10009E00091552280911891403208910E6195928C7
:1000AE0088135A28881766195E2808135F280817C0
:1000BE00E6186328881264288816661868280812BD
:1000CE00692808164F186D2809156E28091189140C
:1000DE00032089104F1C752806207628132008004F
:1000EE0083120313F8010830FC00700DF80D74082C
:1000FE00F80203188428F8070310F00DFC0B7C2877
:02010E000800E7
:1001100083120313E401053064020318962864086F
:100120006307840020308000E40A8B28640863079A
:1001300084008001E40364086307E5000A30F400EA
:10014000F5016108F0006208F1001A207808F0005B
:100150007908F1003030F0076508840070088000ED
:100160000A30F400F5016108F0006208F1001A207D
:100170007008E1007108E20000307106031DC2281A
:1001800000307006031DC528C728E4039B2808001B
:10019000DA28803083120313E100ED28C030E1003B
:1001A000ED289430E100ED28D430E100ED288030D6
:1001B000E100ED28831203136108013A0319C928ED
:1001C0006108023A0319CE286108033A0319D128BD
:1001D0006108043A0319D428D7286203F0006108A3
:1001E000F0077008E1004F147008E60037204F1048
:0A01F0006308E60037204F140800F2
:1001FA0083120313E3010330630203180B29630814
:10020A006207840020308000E30A0029630862073D
:10021A0084008001E30363086207E4000A30F40003
:10022A006108F00077207808F0003030F0076408A1
:10023A008400700880000A30F4006108F00077201A
:10024A007008E1007008003A031D2C292E29E303E7
:04025A00102908005F
:0E025E00831203133D088A003C08820008004A
:10026C00831203134F106108E60037204F14080067
:10027C000E3083120313FD00FD0B42290000080011
:10028C0083120313DC01DD015808DE000030DE1B95
:10029C00FF30DF0080305806F0008030003A7002EA
:1002AC0003186529DC0A0319DD0A5808003CDE0036
:1002BC00DF01031CDF030130D81F0030DF075E08AD
:1002CC00E1005908E200FD200430DA000030DB00C8
:1002DC005B08003C031D74295A08003C03188F2945
:1002EC005A085907F20001305A02F0000030031C82
:1002FC00013E5B02F1007008590784000008F00011
:10030C0072088400700880000130DA02031CDB03E1
:10031C006E2959088400203080005C085D040319A4
:10032C00AD29DA01DB015A08590784000008203A8C
:10033C00031DA429DA0A0319DB0A99290130DA0210
:10034C00031CDB035A08590784002D308000080079
:10035C0083120313580803178D0083168C130C1487
:08036C0083120C08F0000800E8
:1003740083120313DD01DE015808DF005908E00091
:1003840080305906F00080307002031DCB29003004
:1003940058020318D9290130DD000030DE00580866
:1003A400003CDF005908031C013EE001E0025F0845
:1003B400E1006008E2005A08E30088200630DB0010
:1003C4000030DC005C08003C031DEA295B08003CAB
:1003D4000318052A5B085A07F20001305B02F0009B
:1003E4000030031C013E5C02F10070085A078400CF
:1003F4000008F00072088400700880000130DB02FD
:10040400031CDC03E4295A088400203080005D08C2
:100414005E040319232ADB01DC015B085A0784000C
:100424000008203A031D1A2ADB0A0319DC0A0F2AE2
:100434000130DB02031CDC035B085A0784002D3007
:04044400800008002C
:1004480083120313D90159085807840000080319B7
:10045800352A5908580784000008E1003621D90ACE
:04046800272A080037
:10046C00482A803083120313D8005B2AC030D8008E
:10047C005B2A9430D8005B2AD430D8005B2A8030B9
:10048C00D8005B2A831203135808013A0319372A40
:10049C005808023A03193C2A5808033A03193F2A10
:1004AC005808043A0319422A452A5903F0005808FF
:1004BC00F0077008D8007008E60037204F10DB01F9
:1004CC005B085A07840000080319742A5B085A0752
:1004DC0084000008E1003621DB0A662A4F1408006C
:1004EC00403083120313E6003720DA015A08073C28
:1004FC00031C922A5A081C3EF00004300318013EDB
:10050C00F1007008BC007108BD002F218A110A127D
:10051C00E1003621DA0A7C2A0230E600372058083E
:0C052C00E1005908E200E301C8200800CB
:10053800FF3083120313D000FF30D100FF30D20008
:10054800FF309F01C0309F0483161F179F17831227
:040558001F14080064
:10055C002F218A110A128000840ABC0A0319BD0AD1
:08056C00F003031DAE2A080094
:10057400831203139F01C0309F0483161F179F1714
:1005840083125808F000F00D7010F00D7010F00D8B
:10059400701070089F041F143E211F151F1DD42ABC
:1005A4000000D02A1F101E08F100F00183161E0857
:0805B400F0040030F10408001E
:1005BC00831603178C1CE42A0000DE2A8312031313
:1005CC00580803178D000313590803178C00831662
:1005DC008C130C150B08F0008B1355308D00AA30C2
:1005EC008D008C14F01BFC2A8B13FD2A8B170C111D
:0205FC000800F5
:1005FE008316031389100911081288120813881321
:10060E008312891009118813081388120812062004
:10061E000620062088160816891403208910062045
:10062E0089140320891006208914032089100620BE
:10063E0008128914032089100620891403208910BA
:10064E00881288178914032089100620881308162B
:10065E00891403208910081289140320891006209A
:10066E008914032089100816891403208910062086
:10067E00081289140320891088170817881608167F
:0C068E0089140320891006204F14080076
:10069A00433083120313A0004F30A1005530A2004B
:1006AA004E30A3005430A4005330A5002E30A600CB
:1006BA002E30A7003A30A8002030A900AA01A030A5
:1006CA00AB002030AC00A030AD002030AE00A0302E
:1006DA00AF002030B000A030B1002030B200A0300E
:1006EA00B3002030B400A030B5002030B600A030EE
:1006FA00B7002030B800A030B9002030BA00BB01E2
:10070A000E3083169F000514FF220130E6003720C1
:10071A000C30E60037209C22D801BA2270088312D6
:10072A00BE007108BF000830D8007008D900DE2268
:10073A00831203133E08D8003F08D9004030DA007C
:10074A00BA210130D8000130D9002030DA0036222F
:10075A004030D800242248083F06031DB62B3E0825
:10076A0047060319E62B3F30F4000030F5003E0837
:10077A00F0003F08F1001A207008D3007108D40075
:10078A00D501D6010230D8000130D9002B30DA0069
:10079A003622D7015608003C031DDD2B5508003CC4
:1007AA00031DDD2B5408003C031DDD2B53085702A3
:1007BA000318E62B0230D800570AD9007622D70A46
:1007CA00CF2B0830FB009D30FC000530FD00FD0BEF
:1007DA00EC2BFC0BEC2BFB0BEC2B000000003E0877
:1007EA00C7003F08C8000830D800AE2170080313BC
:1007FA00C9007008D8004A30D90046210230D80012
:10080A000130D9004A30DA0036221530FB004B306D
:10081A00FC00BE30FD00FD0B102CFC0B102CFB0B5A
:0E082A00102C00000130E6003720912B1B2C13
:100838001F341F341F341F341F341F341F341F3418
:02400E004A2F37
:00000001FF
